:020000040800F2
:100000002017002065010008851F0008191300084B
:1000100000000000000000000000000000000000E0
:10002000000000000000000000000000E1210008C6
:100030000000000000000000CB210008E3210008C0
:1000400077010008770100087701000877010008B0
:100050007701000879070008770100087701000898
:100060000000000077010008770100087701000810
:100070007701000877010008770100087701000880
:100080007701000877010008770100087701000870
:1000900000000000770100083D23000877010008F8
:1000A0007701000877010008770100087701000850
:1000B0007701000877010008000000000000000040
:1000C00000F002F800F03EF80CA030C80838241800
:1000D0002D18A246671EAB4654465D46AC4201D180
:1000E00000F030F87E460F3E0FCCB6460126334274
:1000F00000D0FB1AA246AB463343184740A7000086
:1001000060A70000103A02D378C878C1FAD8520725
:1001100001D330C830C101D504680C6070470000BD
:100120000023002400250026103A01D378C1FBD813
:10013000520700D330C100D50B6070471FB51FBDFB
:1001400010B510BD00F0FAF81146FFF7F7FF02F006
:100150008DFB00F012F903B4FFF7F2FF03BC00F0CF
:1001600019F900000748804707480047FEE7FEE707
:10017000FEE7FEE7FEE7FEE704480549054A064BB1
:100180007047000039230008C1000008201100203A
:1001900020170020201300202013002001E004C0BD
:1001A000091F0429FBD28B0701D50280801CC907D7
:1001B00000D00270704700290BD0C30702D0027034
:1001C000401C491E022904D3830702D50280801CEB
:1001D000891EE3E70022EEE70022DFE700220309A1
:1001E0008B422CD3030A8B4211D300239C464EE052
:1001F00003460B433CD4002243088B4231D303090E
:100200008B421CD3030A8B4201D394463FE0C309BF
:100210008B4201D3CB01C01A524183098B4201D3D7
:100220008B01C01A524143098B4201D34B01C01AC2
:10023000524103098B4201D30B01C01A5241C3083A
:100240008B4201D3CB00C01A524183088B4201D3A9
:100250008B00C01A524143088B4201D34B00C01A95
:100260005241411A00D201465241104670475DE0AA
:10027000CA0F00D04942031000D34042534000222D
:100280009C4603098B422DD3030A8B4212D3FC22D6
:10029000890112BA030A8B420CD3890192118B4255
:1002A00008D3890192118B4204D389013AD092116B
:1002B00000E08909C3098B4201D3CB01C01A524126
:1002C00083098B4201D38B01C01A524143098B42EF
:1002D00001D34B01C01A524103098B4201D30B01D8
:1002E000C01A5241C3088B4201D3CB00C01A5241FD
:1002F00083088B4201D38B00C01A5241D9D24308E4
:100300008B4201D34B00C01A5241411A00D2014620
:10031000634652415B10104601D34042002B00D58A
:100320004942704763465B1000D3404201B500204C
:10033000C046C04602BD704770477047754600F022
:1003400025F8AE46050069465346C008C0008546FC
:1003500018B020B5FFF710FF60BC00274908B6466B
:100360000026C0C5C0C5C0C5C0C5C0C5C0C5C0C5C4
:10037000C0C5403D49008D46704710B50446C04693
:10038000C0462046FFF7E7FE10BD0000004870475A
:10039000BC10002001491820ABBEFEE72600020079
:1003A0007047000070B50446206801F002F800288C
:1003B0002BD0206800F0E8FF002807D12068816872
:1003C000134A11401031816000BF00BF00F004FFEC
:1003D000054614E000F000FF401B02280FD92068FA
:1003E000806804210840002809D0A06D102108432E
:1003F000A065E06D01210843E065012070BD206823
:100400008068042108400028E4D10020F6E70000BD
:10041000E8FFFF7F70B50446206800F0B5FF064690
:10042000206800F0B7FF002837D0002E35D12068B3
:10043000806805210840012806D1206800F08EFF61
:1004400003202168086009E0A06D10210843A06521
:10045000E06D01210843E065012070BD00F0BCFEA5
:10046000054614E000F0B8FE401B02280FD92068B2
:100470008068C007C00F002809D0A06D1021084374
:10048000A065E06D01210843E0650120E5E72068F3
:100490008068C007C00F0028E4D10020DDE700001D
:1004A00038B5044600200090206800F073FF002853
:1004B00058D1206880682C490840002809D0A06DD8
:1004C00010210843A065E06D01210843E06501208B
:1004D00038BD206800F04AFF244800F04FFF01219A
:1004E000C905084000280DD0214922480068FFF7BF
:1004F00075FE401C009002E00098401E009000989D
:100500000028F9D1607E01282CD000F065FE054658
:100510001FE0206800F03EFF002802D1206800F0B4
:1005200025FF00F059FE401B022812D92068006800
:10053000C007C00F012148404840002809D1A06DE4
:1005400010210843A065E06D01210843E06501200A
:10055000BEE720680068C007C00F0121484048403E
:100560000028D6D00020B3E71700008008270140FC
:10057000400D03001C00002010B50446104800F098
:10058000DFFC002801D000F009F90021C9430C4824
:1005900000F068FC00280ED1094800F0D7FA20804E
:1005A0000021C943064800F05DFC002803D104483F
:1005B00000F0CCFA6080024800F0FAFC10BD0000A8
:1005C000581000200121014A1170704710000020CE
:1005D0000121034A11700021024A11607047000096
:1005E0000E000020140000200121014A1170704704
:1005F0000F000020704770B504460122202105201D
:10060000000701F029F8012220210520000701F050
:1006100030F840210520000701F016F8FFF7EAFF47
:10062000002521E080202040C011002805D0202195
:100630000520000701F00CF804E020210520000748
:1006400001F002F86006040E40210520000700F0CA
:10065000FFFFFFF7CFFF40210520000700F0F4FF68
:10066000FFF7C8FF681CC5B2082DDBDB70BD10B5F5
:10067000012220210520000700F0EEFF01222021A9
:100680000520000700F0F5FF20210520000700F0FD
:10069000DFFF40210520000700F0DAFF1E2002F0F6
:1006A000C5F820210520000700F0CEFFFFF7A2FFCC
:1006B00040210520000700F0C7FFFFF79BFF10BD9A
:1006C00010B5012220210520000700F0C5FF0122FE
:1006D00020210520000700F0CCFF40210520000765
:1006E00000F0B2FF20210520000700F0ADFFFFF76A
:1006F00081FF40210520000700F0AAFFFFF77AFFE5
:1007000020210520000700F0A3FFFFF773FF10BDB5
:1007100010B50024002220210520000700F09CFFD6
:10072000002220210520000700F0ABFF202105203A
:10073000000700F08DFF40210520000700F088FF32
:10074000FFF758FF09E0601CC4B2FA2C03DDFFF785
:10075000B7FF012010BDFFF74DFF20210520000746
:1007600000F069FF0028EED140210520000700F0CD
:100770006BFF0020EEE7000001200749C968014037
:10078000814200D100E00021002904D0012002496B
:10079000C86000BF00BF70470018024072B600BFBB
:1007A000FEE70000F8B5002500BF0E48806880B263
:1007B0000646002412E06846FFF7DEFE684607881A
:1007C0002046E117490F0918C910C900621A3146BD
:1007D00091402A027A4051408DB2641C0A2CEADB17
:1007E0002846F8BD00280040F0B585B005460C4607
:1007F0000020039002900121C9072869884203D094
:10080000091D2869884200D100E000BF00BF5420C4
:10081000405D012802D1022005B0F0BD0121542025
:10082000415500BF286800F0C4FD002876D16068FB
:10083000022874D00121C9072869884203D0091D04
:100840002869884208D128682168826A4B035B0BBB
:100850001A43826200BFC6E02179CA06D20E0F2178
:100860009140286E884321684903490B002905D12E
:100870001F22920621681140890E92E02178C90753
:10088000C90F002901D000218BE00222216811400C
:10089000022901D1012184E00422216811400429A8
:1008A00001D102217DE0082221681140082901D1EF
:1008B000032176E0102221681140102901D1042182
:1008C0006FE0202221681140202901D1052168E034
:1008D000402221681140402901D1062161E0802297
:1008E00021681140802901D107215AE0FF220132FD
:1008F00021681140914201D1082152E001225202A7
:1009000021681140914201D109214AE0012292025D
:1009100021681140914203D10A2142E0FAE0BAE095
:100920000122D20221681140914201D10B2138E00D
:100930000122120321681140914201D10C2130E0C3
:100940000122520321681140914201D10D2128E07A
:100950000122920321681140914201D10E2120E031
:100960000122D20321681140914201D10F2118E0E8
:100970000122120421681140914201D1102110E09E
:100980000122520421681140914201D1112108E055
:100990000122920421681140914201D1122100E00C
:1009A00000212279D206D20E914008432866606861
:1009B0008008401CE969884215D828682268616867
:1009C0000192836ACF06FF0E0F22BA4093430F278E
:1009D000BF06019A3A40920ECF06FF0EBA4013436B
:1009E000836200BF00BF286821680091A16801915F
:1009F0004269009909028A4300990B024C4F019900
:100A000039400B401A43426100BF2068C00FC00745
:100A1000002821D0474800F0B1FC0646464920682E
:100A200088421AD1C0023040002816D1C802304393
:100A30000146404800F0D6FC404941480068FFF7B5
:100A4000CDFB401C0C214843029002E00298401E5E
:100A5000029002980028F9D162E03A492068884261
:100A60000AD180023040002806D188023043014676
:100A7000304800F0B7FC53E03349206888424FD13A
:100A80004002304000284BD14802304301462948FB
:100A900000F0A8FC44E00121C9072869884203D07E
:100AA000091D2869884208D128682168826A4B0399
:100AB0005B0B9A43826200BF00BF2068C00FC00773
:100AC00000282DD01B4800F059FC06461A49206822
:100AD000884207D1C202304690430146154800F0D3
:100AE00081FC1DE017492068884207D18202304608
:100AF000904301460F4800F075FC11E01249206850
:100B000088420DD14202304690430146094800F028
:100B100069FC05E0A86D20210843A8650120039029
:100B200000BF00215420415500BF039874E6000027
:100B300000FFFF0708270140001000B0400D030030
:100B40001C000020004000B8002000B401460868E6
:100B5000006C7047FEB50446002002900025002678
:100B60000190002C01D10120FEBD3C20005D012838
:100B700000D100BF2069002805D001214905206966
:100B8000884200D100BFA06D002807D1204600F0A8
:100B90002DF90020E065002154200155206800F067
:100BA00001FC002817D120688168894A1140012280
:100BB00012071143816000BF864987480068FFF72C
:100BC0000DFB401C4000019002E00198401E019086
:100BD00001980028F9D1206800F0E4FB002809D131
:100BE000A06D10210843A065E06D01210843E06578
:100BF00001200290206800F0DCFB0746A06D102168
:100C0000084000287ED1002FFCD1A06D0901884347
:100C100002210843A065206800F0BCFB002872D1C7
:100C2000217E8903A0680843617EC9030843A17E31
:100C300049030843216B002902D00121090300E088
:100C400000210843E16808432169C90FC907002949
:100C500003D021694900490801E001214905084301
:100C60002C21095D4900084305432020005D01282F
:100C70000ED1A07E002803D101200004054307E027
:100C8000A06D20210843A065E06D01210843E065C7
:100C9000606A002806D0FF21C131606A0840A16A5D
:100CA000084305432068C0684C4908402843216830
:100CB000C8606068800F8007E16C084306433C20F1
:100CC000005D01280BD16068800F80070121084377
:100CD000216C0843616C0843A16C084306432068FB
:100CE00000693F49084030432168086103218907B2
:100CF0006068884216D049426068884212D0490034
:100D0000606801E05BE00DE088420BD03548806808
:100D10000F21890488430F2292046168114008431F
:100D2000304988600021626B206800F062FB2E4928
:100D3000A26B206800F05DFB2069002807D12068C5
:100D4000806A0F21C94308432168886211E00121AC
:100D50004905206988420CD1207F401E4007C10E02
:100D60000F20C0438840216E08432168896A2168AA
:100D7000886221680020009100994969042202409C
:100D800007239340194004220240D140606B814206
:100D900008D10020E065A06D0221884301210843AD
:100DA000A06512E0A06D0221884310210843A065D0
:100DB000E06D01210843E0650120029005E0A06D8F
:100DC00010210843A065012002900298CCE60000A3
:100DD000E8FFFF7F400D03001C0000200102DEFF42
:100DE00002FCFF1F0027014004FFFF0710B586B07B
:100DF0000446142101A8FFF7EFF91849206888423A
:100E00002AD100BF1648006801210905084314498A
:100E1000086008460068012109050840009000BFED
:100E200000BF00BF0E484038406B012108430C4909
:100E3000403948630846406BC007C00F009000BFB0
:100E400000BF12200190032002900020039001A90E
:100E50000520000700F0D4F806B010BD00240140C2
:100E600040100240F8B504460D466069082801D1DB
:100E700008260CE02068C068C007C00F002805D015
:100E8000A06D20210843A0650120F8BD042600F0D4
:100E9000A3F9074619E0681C002816D000F09CF959
:100EA000C01BA84201D8002D0FD120680068304037
:100EB00000280AD1A06D04210843A06500BF0021CD
:100EC0005420015500BF0320DFE720680068304050
:100ED0000028E0D0A06D012149020843A0652068E8
:100EE00000F06DFA002823D0A07E002820D12068D1
:100EF00000680821084008281AD1206800F059FA33
:100F000000280DD1206840680C2188432168486082
:100F1000A06DFF210131884301210843A06507E04E
:100F2000A06D20210843A065E06D01210843E06524
:100F3000207E002802D10C20216808600020A4E750
:100F400070B50446206800F034FA00282AD100BFAA
:100F50005420005D012801D1022070BD01215420E0
:100F6000015500BF2046FFF79BFA0546002D14D11E
:100F7000A06D0E490840FF2101310843A065002003
:100F8000E0651C202168086000BF00215420015545
:100F900000BF206800F01EFA05E000BF00215420C9
:100FA000015500E002252846D7E70000FEF1FFFFCB
:100FB00070B5044600BF5420005D012801D1022015
:100FC00070BD01215420015500BF2046FFF7EAF90A
:100FD0000546002D0CD12046FFF71CFA0546002DD2
:100FE00006D1A06DFF210131884301210843A0658E
:100FF00000BF00215420015500BF2846E0E7000053
:1010000070B503460A460021D7E001268E401468D9
:101010003440002C73D01579AD07AD0F012D04D0ED
:101020001579AD07AD0F022D18D198684E00032534
:10103000B5400646AE4330464E00D568B54028431D
:101040009860586801258D400646AE43304610260C
:10105000556835402D098D40284358601579AD07F6
:10106000AD0F032D0BD0D8684E000325B5400646C2
:10107000AE4330464E009568B5402843D860157998
:10108000AD07AD0F022D15D1CD08AE001D462035A0
:10109000A8594D07EE0E0F25B5400646AE43304623
:1010A0004E07F60E1569B5402843CD08AD001E4623
:1010B0002036705118684E000325B5400646AE43F1
:1010C00030461579AD07AD0F4E00B5402843186086
:1010D0000326360455683540002D6DD03A4D8E08F4
:1010E000B600A8598D07EE0E0F25B5400646AE4353
:1010F000304605252D07AB4202D1002510E05BE00C
:10110000324DAB4201D101250AE0314DAB4201D154
:10111000022505E02F4DAB4201D1032500E0052556
:101120008E07F60EB5402843274D8E08B600A8510D
:10113000254D603D28680546A5432846012636050D
:1011400055683540002D02D00546254328461E4DE2
:10115000603D286068680546A54328460126760557
:1011600055683540002D02D0054625432846164DCA
:10117000603D6860144D203568680546A5432846E3
:101180000126760455683540002D02D005462543DA
:1011900028460D4D2035686028680546A543284639
:1011A0000126360455683540002D02D005462543FA
:1011B0002846054D20352860491C1568CD40002D76
:1011C00000D022E770BD000060180240000400500B
:1011D00000080050000C00500148006870470000F3
:1011E000200000200348006803490978401801499D
:1011F00008607047200000202800002010B500245F
:1012000008480068FF2101310843064908600320AF
:1012100000F00AF8002801D0012401E000F034F8C1
:10122000204610BD00200240F8B5044600251348B2
:10123000007800281ED0114801787D20C000FEF7FC
:10124000CDFF074639460E480068FEF7C7FF064641
:1012500000F046F800280BD1042C07D200222146CA
:10126000401E00F033F80748046004E0012502E066
:10127000012500E001252846F8BD000028000020D7
:101280001C0000202400002008B500BF0E480068A4
:10129000012108430C49086008460068C007C00FD8
:1012A000009000BF00BF00BF07484038C06B8905F1
:1012B000084305494039C8630846C06B0904084023
:1012C000009000BF00BF08BD4010024070B504464A
:1012D0000D4616462946204601F0E0F870BD000094
:1012E00070B504462546681E0949884201D9012087
:1012F0000CE0681E074948610321081F01F0CEF881
:1013000000200449886107200861002070BD0000AA
:10131000FFFFFF0000E000E000BFFEE770B50546FC
:101320000C46FFF7A4F97820FFF765F9FFF7F0F90D
:10133000094908702846FFF75EF9FFF7E9F9064901
:1013400008702046FFF757F9FFF7E2F902490870E5
:10135000FFF7B6F970BD0000050000208168024A61
:101360001140891C81607047E8FFFF7F8168024A55
:101370001140491C81607047E8FFFF7F0146086803
:1013800007229205104070470146886802221040EB
:101390004008704701468868C007C00F01225040CE
:1013A0005040704701468868012212071040000F24
:1013B0007047014688680422104080087047014643
:1013C000C868032292021040002801D10120704712
:1013D0000020FCE78168024A1140091D81607047C6
:1013E000E8FFFF7F026807239B059A430A430260D8
:1013F000704730B5436904240D4625400724AC40AE
:10140000A34304240C401546A5402B43436130BD43
:1014100008B5054909680143034A11601146096886
:101420000140009100BF08BD4010024002494968D8
:101430008143014A5160704780180240024909689F
:101440008143014A1160704780180240024949688F
:101450000143014A516070478018024002494968BF
:101460000143014A5160704700180240024909686F
:101470000143014A1160704780180240024909681F
:101480000143014A116070470018024070B50446DC
:101490000025207900284ED02068002851D060799E
:1014A000002804D0012809D0022815D10DE02068B9
:1014B000FFF7BCFF2068FFF7D9FF0FE02068FFF7B8
:1014C000BDFF2068FFF7C2FF08E02068FFF7CEFFEE
:1014D0002068FFF7BBFF01E0012500BF00BFA07936
:1014E00000282ED0A079012804D002280DD003288E
:1014F0001DD115E02068144949688143124A5160A2
:1015000000BF2068FFF7BAFF14E020680E490968A1
:1015100081430D4A116000BF2068FFF79FFF09E07B
:101520002068FFF7ABFF2068FFF798FF02E002207A
:10153000054300BF05E02068FFF780FF2068FFF744
:1015400075FF284670BD000000180240F0B5024645
:101550000B4600266AE00124B440196821400029A6
:1015600063D05868012802D05868022815D19868BD
:1015700094680D464D436F00ED19AC430D464D4345
:1015800045432C43946000BFD86854688C430D4693
:1015900045432C43546000BF00BF1869D4680D4612
:1015A0004D436F00ED19AC430D464D4345432C436D
:1015B000D46000BF5868022829D1FF2911D8586982
:1015C000146A0D464D434D434D432F017D1BAC43E3
:1015D0000D464D434D434D4345432C43146200BFDC
:1015E00015E05F69080A40430C0A60430C0A604337
:1015F0000401241A506AA0430C0A64430D0A6C4388
:101600000D0A6C437C432043506200BF00BF586802
:1016100014680D464D436F00ED19AC430D464D4324
:1016200045432C43146000BF00BF761C1868F0408F
:10163000002890D1F0BD024610690840884201D1CF
:10164000012070470020FCE781627047816270478B
:10165000816170478161704730B503680C464C4327
:1016600065006419A3430C464C4354432343036071
:1016700030BD10B543688B430C465443234343604D
:1016800010BD30B5C3680C464C4365006419A343D4
:101690000C464C4354432343C36030BD08B5054951
:1016A000496B0143034A51631146496B0140009164
:1016B00000BF08BD00100240F8B5069CF02525408B
:1016C0002D042607360B35434E033543F0261E40C6
:1016D00036021F073F0D3E433543F02616401707DD
:1016E0003F0F3E43354300954568034E3540009E0D
:1016F00035434560F8BD0000C00000FFF7B584B079
:101700000D46144601200390002D09D16078102168
:101710000840102804D16078EF2108400A3060703A
:10172000002D00D100E000BF049800F053F80498A9
:1017300000F058F8012843D0002D08D0E078009040
:101740006378A27821780498FFF7B6FF29E0E07863
:101750000A21FEF743FD0701E0780A21FEF73EFD6E
:101760000F43FEB260780A21FEF738FD070160786A
:101770000A21FEF733FD0F43F8B20290A0780A2148
:10178000FEF72CFD0701A0780A21FEF727FD0F4385
:10179000F8B20096019021780246029B0498FFF768
:1017A0008BFF049800F012F8049800F082F80028EB
:1017B00004D1049800F012F9039001E00020039096
:1017C000049800F00CF8039807B0F0BD8021C943DD
:1017D000C1607047CA214162532141627047FF21B5
:1017E00041627047F8B505467D20C0000090002694
:1017F000284600F052F800281CD100BF401EE860C7
:1018000000BF284600F049F804460EE000F02EF92B
:10181000012802D10098401E0090284600F03DF8B3
:1018200004460098002800D101260098002801D025
:10183000012CEBD13046F8BD0146886940221040AA
:10184000704770B504460D4601262046FFF7C2FFDB
:101850002046FFF7C7FF01281AD02868A169402257
:1018600091430143A16100BFA8682169C90BC90365
:101870000143216100BF686821697F2212049143FE
:1018800002041143216100BF2046FFF79FFF00269D
:101890002046FFF7A4FF304670BD0146C8684022CD
:1018A0001040800970470146C86820221040400956
:1018B00070470146886920221040400970470000A7
:1018C000F8B5069CF02515402D041607360B354358
:1018D0000D43F0261E4036021F073F0D3E433543A1
:1018E000F026264027073F0F3E4335430095056805
:1018F000024E3540009E35430560F8BD808080FF74
:10190000F7B584B00D46144601200390002D09D18F
:101910000498FFF791FF002800D002E0002020602B
:1019200000BF09E00498FFF787FF002800D002E01D
:101930000020206000BF00BF0498FFF74BFF049811
:10194000FFF750FF012843D0002D08D0A079009068
:101950006379227921680498FFF7B2FF29E0A07922
:101960000A21FEF73BFC0701A0790A21FEF736FCAD
:101970000F43FEB260790A21FEF730FC070160795F
:101980000A21FEF72BFC0F43F8B2029020790A21BE
:10199000FEF724FC070120790A21FEF71FFC0F4304
:1019A000F8B20096019021680246029B0498FFF766
:1019B00087FF0498FFF70AFF0498FFF77AFF0028D3
:1019C00004D1049800F00AF8039001E0002003908D
:1019D0000498FFF704FF039807B0F0BDF8B504467C
:1019E0007D20C0000090002500BFE06880210840F5
:1019F000A021C9430843E06000BF2046FFF753FF22
:101A000006460EE000F032F8012802D10098401E90
:101A100000902046FFF747FF06460098002800D1B7
:101A200001250098002801D0002EEBD1012D1BD0FC
:101A30007D20C00000902046FFF735FF06460EE0EF
:101A400000F014F8012802D10098401E00902046B2
:101A5000FFF729FF06460098002800D101250098CD
:101A6000002801D0012EEBD12846F8BD03480069BB
:101A7000012109040840000C7047000000E000E06C
:101A800001490860704700001C00002001688022A6
:101A9000914301607047000010B502461368234867
:101AA000824206D001208007824202D02048824232
:101AB00005D118467024A0434C68204303461B48B8
:101AC00082420FD00120800782420BD01848824208
:101AD00008D01848824205D01748824202D01748E1
:101AE000824206D1184603242402A043CC68204336
:101AF000034613608868D06200BF0888906200BF08
:101B00000A48824205D00C48824202D00B488242E9
:101B100003D10869106300BF00BF00BF50690124F2
:101B20002043506100BF002010BD0000002C014088
:101B300000040040002000400044014000480140F3
:101B400008B501460A4A1269009200BF0846421CC5
:101B5000002A00D0401C07E0054A126901231B043B
:101B60001A40002A00D0401E0028F5D108BD000010
:101B700000E000E00EB500200090019002902248A5
:101B80002249086000054860002120488160C1604A
:101B9000012149050161042141610021017641765D
:101BA000012181760221C1610021416281622430DC
:101BB00001722438016307214163816300212430CD
:101BC00001762438C164FEF7C5FF002801D0FEF776
:101BD000E5FD0F48009000200190029069460B48F7
:101BE000FEF702FE002801D0FEF7D8FD094800905C
:101BF0000420019069460548FEF7F6FD002801D053
:101C0000FEF7CCFD0EBD000000240140581000205E
:101C1000020000041000001010B588B000200690EB
:101C2000079018216846FEF7D7FA0220FFF736FD25
:101C30000120FFF733FD202105200007FFF706FDF7
:101C4000402105200007FFF701FD80210520000746
:101C5000FFF7FCFC0121C90205200007FFF7F6FC95
:101C600080200090002001900120049069464648A1
:101C7000FFF76CFC202000900120019003200290CF
:101C8000002003900490694605200007FFF75EFCE2
:101C9000402000900120019003200290002003903A
:101CA0000490694605200007FFF750FC8020009053
:101CB00001200190002002900390049069460520C5
:101CC0000007FFF743FC0120C002009001200190B3
:101CD0000020029003900490694605200007FFF75A
:101CE00035FC00210846294A8300D258040C0723FA
:101CF000A3409A43040C0B46A3401A43234B840091
:101D00001A5100BF01200690012168460177002189
:101D100041770121817706A8FFF7B8FB0120022156
:101D200005221207D268034643435C001B199A43FD
:101D3000034643434B431A4305231B07DA6000BFA6
:101D400000211A461268034643435C001B199A435C
:101D5000034643434B431A4305231B071A6000BF46
:101D60000221052000F022FB0520002809DB00BF2E
:101D700000BFC206D20E01219140054A116000BF8A
:101D800000BF00BF08B010BD000400506018024042
:101D900000E100E030B587B0002004900590069087
:101DA00002900390019000BF4848C06903210902D6
:101DB00008400121490288421AD000BF4348C06947
:101DC000C90108434149C86100BF00BF0846C06956
:101DD0000121090488433D49C86100BF4815C9690C
:101DE0000322120291430143384AD16100BF00BF70
:101DF00000BF3648C0690121C90308433349C8619F
:101E000000BF081531494039C96B01432F4A403A98
:101E1000D1631146C96B0140009100BF00BF2C483F
:101E200000218C00C31DF933E2181368294883424E
:101E300029D0002004907F200590FF20069004A95F
:101E40002548FFF7FEFC002168460173417381734A
:101E500002AA01212048FFF753FD012168460171C4
:101E6000417181710021C17101AA01211A48FFF756
:101E700045FC17480021174A8D00C41DF9342B1961
:101E80001A6000BF00BF002004907F200590FF2053
:101E9000069004A91048FFF7D4FC0021684601739E
:101EA0004173817302AA01210B48FFF729FD01212B
:101EB00068460171417181710021C17101AA01213E
:101EC0000548FFF71BFC07B030BD00004010024082
:101ED00000B00040F23200000028004000B585B09C
:101EE00014216846FEF778F90120C003FFF790FA45
:101EF0003F2069460880002001900648029000209B
:101F000003900548FFF7C8FD0348FFF7BFFD05B084
:101F100000BD0000FFFF00000020004000B585B0BC
:101F200014216846FEF758F901208004FFF770FA83
:101F30000321162000F076FA1620002809DB00BFE6
:101F400000BFC206D20E012191400B4A116000BFB2
:101F500000BF00BF3F20694608800020019007486D
:101F600002900020039004900548FFF795FD044877
:101F7000FFF78CFD05B000BD00E100E08713000015
:101F80000048014000BFFEE770B50646002415E09A
:101F9000002000F0EFF9102000F0ECF92146B031FC
:101FA000C8B200F0E7F9002504E0304600F0E9F996
:101FB000681CC5B2802DF8DB601CC4B2042CE7DBC2
:101FC00070BD10B5802105200007FFF743FB0A20F4
:101FD000FFF7B6FD802005210907886200BF0A20AF
:101FE000FFF7AEFD802105200007FFF733FBAE2091
:101FF00000F0C0F9812000F0BDF9452000F0BAF9E9
:10200000A12000F0B7F9B02000F0B4F9A62000F04C
:10201000B1F9C82000F0AEF9A82000F0ABF91F20FC
:1020200000F0A8F9D32000F0A5F9102000F0A2F9E3
:10203000D52000F09FF9802000F09CF9D92000F015
:1020400099F9222000F096F9DA2000F093F9122095
:1020500000F090F9DB2000F08DF9202000F08AF9E3
:102060008D2000F087F9142000F084F9AF2000F0F3
:1020700081F910BD70B504460D462946B031C8B28D
:1020800000F078F9F021214009110846103000F0E5
:1020900071F92007000F00F06DF970BDFFB581B038
:1020A00006461746002000900024002504980128C9
:1020B00002D0022860D125E020E0785D2038C0B24F
:1020C00000907E2E04DD00260298401CC0B20290D3
:1020D00030460299FFF7CEFF002409E0062200995E
:1020E0005143274A8918085D00F04BF9601CC4B2BF
:1020F000062CF3DBB01DC6B2681CC5B2785D0028A3
:10210000DBD139E034E0785D2038C0B20090782E21
:1021100004DD00260298401CC0B2029030460299AD
:10212000FFF7A8FF002408E0009909010919154AE2
:10213000505C00F026F9601CC4B2082CF4DB029855
:10214000401CC1B23046FFF795FF002409E000991A
:102150000901091908310B4A505C00F012F9601CA2
:10216000C4B2082CF3DB30460830C6B2681CC5B2D6
:10217000785D0028C7D100BF00BF05B0F0BD0000EA
:10218000629D00088A9F000810B500240BE0002122
:102190002046FFF76FFFE101044A8818802100F014
:1021A00007F8601CC4B2042CF1DB10BD2C00002029
:1021B00070B505460E46002404E0285D00F0E1F805
:1021C000601CC4B2B442F8DB70BD704710B5FEF7B6
:1021D000E9FA044664212046FEF700F8084610BDDF
:1021E000704710B5FEF7FEFF10BD000070B502206D
:1021F0004C490968C908C90001434A4A116000BF37
:1022000000BF00BF474800684007400F0228F8D1D0
:1022100000BF45480068FF2101310843424908607A
:1022200000BF00BF00BF404800680121890208408C
:10223000800A0028F6D000BF3B484030006A0121E8
:10224000084339494031086200BF00BF00BF36482B
:102250004030006A0221084040080028F6D000BF44
:1022600032480068C90108433049086000BF0220B5
:1022700000210822030704460C4315022C431C438B
:10228000294DED682A4E35402C43274DEC6000BFA8
:1022900000BF28460068510508432946086000BF72
:1022A00000BF0846C068090408432946C86000BF4B
:1022B00000BF00BF1C480068012149060840400ECD
:1022C0000028F6D00020184989680F221202914395
:1022D0000143154A916000BF022011468968C90870
:1022E000C9000143916000BF00BF00BF0E48806875
:1022F000382108401028F8D100200B4989680722AE
:10230000120391430143084A916000BF0948FFF757
:10231000B7FB0320FEF788FF002801D0FEF73EFA46
:1023200070BD00000020024000100240007000401C
:102330008C80FF1F0090D0037047000010B500BFD5
:102340000A480069C007C00F0121484048400028E2
:102350000BD000BFC81E0549086100BF04480068D3
:10236000401C0349086000F053FA10BD00480140CA
:102370001400002010B5044621460020FEF7CEFFD1
:1023800010BD10B5044621464020FEF7C7FF10BD22
:1023900030B47446641E2578641CAB4204D3635D7C
:1023A0005B00E31830BC18471D46F8E710B500285D
:1023B00019DB1A4A03231B02D21883089B00D25848
:1023C0008307DC0EFF23A3409A438B071B0E840771
:1023D000E40EA3401A43114B032424021B19840862
:1023E000A4001A5118E00E4A03071B0F083B9B0874
:1023F0009B00D2588307DC0EFF23A3409A438B0730
:102400001B0E8407E40EA3401A43054B0407240F58
:10241000083CA408A4001A5110BD000000E100E02F
:102420001CED00E010B5002819DB1A4A03231B023B
:10243000D21883089B00D2588307DC0EFF23A340E9
:102440009A438B071B0E8407E40EA3401A43114BDB
:10245000032424021B198408A4001A5118E00E4A10
:1024600003071B0F083B9B089B00D2588307DC0E19
:10247000FF23A3409A438B071B0E8407E40EA3405F
:102480001A43054B0407240F083CA408A4001A5162
:1024900010BD000000E100E01CED00E010B50028D8
:1024A00019DB1A4A03231B02D21883089B00D25857
:1024B0008307DC0EFF23A3409A438B071B0E840780
:1024C000E40EA3401A43114B032424021B19840871
:1024D000A4001A5118E00E4A03071B0F083B9B0883
:1024E0009B00D2588307DC0EFF23A3409A438B073F
:1024F0001B0E8407E40EA3401A43054B0407240F68
:10250000083CA408A4001A5110BD000000E100E03E
:102510001CED00E010B58C0003460C331A5110BDC1
:1025200070B504462079A16888470546E0784007E1
:10253000400F002802DD2088401C2080E078C00980
:10254000A8421CD0E07838218843E1788906490FF9
:10255000491CC900382211400843E0708006400F32
:10256000032810DBE07880218843E90180221140B4
:102570000843E070E07838218843E07003E0E078B9
:1025800038218843E070E0784007400F0300FFF7F0
:10259000FFFE06042856ACFBD7FBE078C009E178C3
:1025A0004906C90F884216D1A078F0218843A0704F
:1025B000E068002802D02046E1688847002020809B
:1025C000A07800090001401CA070E078C008C0009D
:1025D000401CE07004E0A078F02188438030A070B7
:1025E000D7E0E078C009E1784906C90F884212D0E7
:1025F000A078F02188431030A0702069002802D014
:1026000020462169884700202080E078C008C0006B
:10261000801CE07012E02088C8280FDDA078F0212F
:1026200088435030A070206A002802D02046216ADA
:102630008847E078C008C000401DE070A9E0E0785D
:10264000C009E1784906C90F884225D1A078F02158
:102650008843A070E068002802D02046E1688847DF
:10266000A0780007000F0F2808D0A078000900010B
:10267000A178491C0907090F0843A0706069002868
:1026800002D020466169884700202080E078C00899
:10269000C000C01CE07027E020883C2824DDA07822
:1026A0000007000F01280BD1A078F02188433030BB
:1026B000A070A069002813D02046A16988470FE0C8
:1026C000A0780007000F02280AD1A078F0218843E3
:1026D0004030A070E069002802D02046E1698847B8
:1026E000E078C008C000E07053E0E078C009E1780D
:1026F0004906C90F88421AD0A078F02188431030CB
:10270000A0702069002802D02046216988472088CF
:102710003C2807DA00202080E078C008C000801C38
:10272000E0700CE0E078C008C000E07007E02088AE
:102730003C2804DDE078C008C000401CE07028E0C0
:10274000E078C009E1784906C90F88420BD1A0782A
:10275000F02188436030A070606A002812D02046C3
:10276000616A88470EE0A078F02188431030A0709D
:102770002069002802D0204621698847E078C008F7
:10278000C000E07005E0FFE7E078C008C000E0703E
:1027900000BF00BF70BDF8B504460E4615461F4683
:1027A0002C212046FDF718FDA078F02188438030C9
:1027B000A070A660E07880218843002D01D101211E
:1027C00000E00021C901802211400843E070E07858
:1027D00040218843A901402211400843E07027713D
:1027E000F8BD000001460948026805E08A4202D1AE
:1027F0000020C0437047926A002AF7D1034800685E
:102800008862024801600020F4E700000000002018
:1028100010B50548046803E02046FFF781FEA46A6E
:10282000002CF9D110BD00000000002000210E4A4C
:10283000516200BF00BF11460968012211430A4AD4
:10284000116000BF0DE000BF0749496A814208D30B
:1028500000BF0549096849084900034A116000BFE3
:1028600000E0F0E700BF704700200040FEF7C6FC24
:10287000FFF7BCFCFFF7D0F9FFF750FBFFF72EFB8B
:10288000FFF788FAFFF776F90120C0020521090752
:10289000886100BFFFF795FB0020FFF775FBFFF78E
:1028A00095FC1A4908700123002219491948FFF7BD
:1028B00072FF194A00211748FFF72CFE174A012121
:1028C0001448FFF727FE164A05211248FFF722FE9B
:1028D0001048FFF787FF00BF1248C0680121084376
:1028E0001049C86000BF00BF0846006801210843C6
:1028F0000C49086000BF07E001230BA20021084635
:10290000FFF7CCFBFFF740FCF6E7000019000020C2
:102910002D2900082C100020D1050008E905000829
:10292000C505000800480140410000000146802024
:10293000044A12690240824201D1012200E00022D1
:10294000D0B2704700040050081C3044580000000A
:10295000000404043C3C00000800000008000800DB
:10296000000800000008000000020406080A0C101D
:102970001400010203040506080A01020201000016
:102980000201000001010000000000010000010040
:102990000002000000000000000000000000000233
:1029A000020000010100010001000000010000021E
:1029B000000000000002000000020202010000020C
:1029C00000000102000000010001010000020001FE
:1029D0000000010100010002000100020202BCB17E
:1029E000CBD9D5D7CBD9C4EACEB4D6B5CAB1B9DB29
:1029F000D2F4BDB5B1CACFC8B1A8BEFDD6AA00B544
:102A0000C3C8CCC7D2C8CCB5C3C4CDC7D2C4CDD03F
:102A1000EBB4FDCAB1D6C1B9A6C3FBBBB9D4DA00C9
:102A2000C7A7B0E3D3C3BCC6B3BFBBE8B2BBCDA39B
:102A3000CBADD6AAB4CBCAC2B5BDB5D7C0CDD0C474
:102A400000CCD4C9B3BCFBBDF0C6EFC1FACCA4BB6B
:102A5000A2CBE4CAC7C0CDD0C4D3DAD6D0D3D0B2CB
:102A6000B900D3FBCDFBD0C4CAC2CEF7B7BDBFC936
:102A7000C7F3B2BBC8E7C4AAB6AFC1A2B5D8BFC935
:102A8000C4B100CAB3D3C3CEDED3E0C9EDC7E5CF2E
:102A9000B2C6B6B4FDCAB1C0FBC0D6C8A8D3EBB8A5
:102AA000C5C8CB00CDCBC9EDBFC9B5C3BDF8B2BD5C
:102AB000CEAAC4D1D6BBD2CBCAD8BEC9C4AACDFB7C
:102AC000B8DFB0E200C2B7C9CFBAE0CDA8D6D5C949
:102AD000EDD3D0B9A6CCEFB2CFB7E1CAECBCD2B53A
:102AE000C0D0CBC2A100D0C4D6D0D5FDD6B1C0EDE8
:102AF000CBB3B7A8BFEDCAA5CEDECBBDD3EFD6D53D
:102B0000D3D0B7D6C3F700D2F6D4B5BBE1D3F6BA6B
:102B1000CECAC2B2BBB3C9D0EBCEDECFDED2E2D1D9
:102B2000DBC7B0CAC7D5E600D3D0D2E2D0CBB1E480
:102B3000B5BDB5D7B0B2C8BBC8F4CECAD3C3CAC23C
:102B4000D6BBBDFCB9F3C8CB00BBBBC2E9B5C3CB98
:102B5000BFBBF7C8CBCBABD7E3D2AABCFBB7D6C3BE
:102B6000F7D2F2D4D6B5C3B8A300C7F4C8CBB7EA3E
:102B7000C9E2B2A1BCB4B0B2C8BBC1FAC3C5B5C347
:102B8000D3F6C3FBB1E9BBCAB6BC00C8CED2E2CE15
:102B9000DEC2C7C2B7D3D0BAE0CDA8CBE6D0C4CB93
:102BA000F9D3FBE5D0D2A3C8E7C8CB00C8F4C8CBA3
:102BB000BACDD4B9BACECAB1BFC9C9ECBAC3D1D49F
:102BC000B2BBD0C5CAD8BEC9B4FDCAB100B5C3B482
:102BD000A6CEDECAA7CBF0D6D0D3D0D2E6D0A1C83D
:102BE000CBB7EAD0D7BEFDD7D3CBB3BCAA00D0C4F5
:102BF000D6D0B2BBB6A8CDF7BFB4BEADCEC4C7A1C8
:102C0000CBC6BBADB1FDCAB3D2B2C4D1CDCC00D01E
:102C1000C4D6D0CEDECAC2CBF9D7F7D3D0B9A6C8B6
:102C2000E7B9ADC9CFBCFDD2BBB7A2B5B1BFD50026
:102C3000BCB1CBAECFC2B4ACCFD5B4A6B4FDCAB193
:102C4000C8F4CECAD3AAC4B1BEA1BFC9CAA9CEAA6C
:102C500000C9F1B7F0BBA4B3D6D3D0D4D6CEDECE64
:102C6000A3CDBEC9FAC6BDB0B2B5BDB5D7C8D9B936
:102C7000E900C4B1CDFBB4D3D0C4BBE9D2F6D4D003
:102C8000C4D0D7CAB2C6BDF8D2E6B8FCC0FBCCEF00
:102C9000B2CF00CCEFB2CFB1B6CAECC3FCD4CBBD3F
:102CA000A5C0B4B2A1D3F6C1BCD2A9D0D0C8CBB113
:102CB000E3BBD800C9CCBCD6C0FBD2E6D0D0B2D8DA
:102CC000D3D0CEA3B2A1B0B2CBCFCBECBEA1BFC903
:102CD000CAA9CEAA00CAC7B7C7C4AACBB5B1D8D0B3
:102CE000EBD7D0CFB8D0C4D5FDC0EDD6B1B7BDC3FA
:102CF000E2D4D6CEA300CBCFD6D5D3D0C0EDB2A1EF
:102D0000B5C3B0B2C8ABB3F6C8EBC7F3C4B1B9C56D
:102D1000BEAEB7EAC8AA00C9CFCFC2D0C4B7B3C746
:102D2000F3CFD0B2BBCFD0D3FBCDFBB9A6C3FBCA88
:102D3000D8BEC9B5C3B0B200B8C4BEC9B3C9D0C249
:102D4000BAAEBBA8D3F6B4BAB4D3C7B0D7E8D6CD21
:102D5000BDF1B5C3B3C6D0C400B8A1D4C6D5DAD4CA
:102D6000C2B2BBD0EBD2C9BBF3B5C8B4FDD4C6CA9E
:102D7000D5B1E3BCFBCAD5BBF100B1A6BDA3B3F688
:102D8000CFBBB9E2BBD4CDF2C0EFB9F3C8CBD6B854
:102D9000D2FDCEDEB2BBB9DBC3C000B1D5BFDABA5B
:102DA000CFB3DDCBFBCAC2C4AAC0EDC8F4D3D0BF39
:102DB000F7D0C4B5BDCDB7BAA6BCBA00CAD8BEC993
:102DC000B0B2C8BBDFB5CECAC9F1CFC9D6B1B4FD68
:102DD000CAB1C0B4CAC2D2E0C5BCC8BB00B1A6D497
:102DE000DACAAFD6D0D2ECC8CBC9D9D6AAD6B1B43C
:102DF000FDB7D6C3F7BEA1BFC9CAA9CEAA00C4DA1F
:102E0000B2D8BDF0D3F1BACEB1D8CDE2D1B0D3F6BD
:102E1000B9F3D6B8D2FDB2BBD0EBC0CDD0C400D090
:102E2000C4D6D0CEDECAC2C7EFCBAEB3CEC7E5B2F2
:102E3000BBD0EBD2C9BBF3CAC2D7D4C8BBB3C9009D
:102E4000B2BBD3C3D3C7D2C9D7D4D3D0BCD1C6DACF
:102E5000C8F4CECAC7B0B3CCC7B0C2B7BFC9D2CB13
:102E600000CDD1B3FDC1CBCAC2C7D2D7D4BFEDD03C
:102E7000C4B4FDB5C3CAB1C0B4BFB0D1B0D5FDC2F2
:102E8000B700BEB2B4A6B0B2C9EDB4FDC3FCCAD897
:102E9000CAB1B6AFC8C7B7C7B8A3CAD8BEC9CEDE15
:102EA000D2C900BCD2B5C0D3C7D0D7C8CBBFDAD344
:102EB000D0D4D6C6EDB8A3B1A3C7ECD3CCBFD6C689
:102EC000C6B2C600C7A7B0E3D3C3BCC6CDF7B7D15F
:102ED000B9A6B7F2B2BBC8E7CAD8BEC9D7C5C9F54B
:102EE000C0B4D3C900D2F5C0FBC5AEC8CBB2BBD20B
:102EF000CBC4D0D7D3C8F4CAC7C7F3C4B1CFC8D0E6
:102F0000D7BAF3BCAA00D6BBD5E2D2BBD7C5BEFDAB
:102F1000D7D3C4AAB4EDC0CEBCC7D4DAD0C4B2BB38
:102F2000C9FABCC5C4AF00CCECBBCABDB5B6F7CAC4
:102F3000BCD6D5C4AACDFCB3BFBBE8C0F1B7F0BFC7
:102F4000C9D2CBC9D5CFE300CCECC9FACDF2CEEFD4
:102F5000C4B1CDFBBDD4CDA8B8A3B5C2CFE0D6FADD
:102F6000C8F0C6F8B4D2B4D200D3FBC7F3D0C4CAF9
:102F7000C2C7A1C8E7CEA7C6E5B5BDB5D7CAA4C02C
:102F8000FBD2CBD3C3D0C4BBFA00CCECB5D8D3D0E2
:102F9000B8D0D3A6D1E9B7C7B3A3B7F0C9F1BBA4E2
:102FA000D3D3B5C3D6AEC4AACDFC00CAD8BEC9CA55
:102FB000D8BEC9CAC2D7D4B3C9BECDB6AFD4F2B693
:102FC000E0D1EABEB2D4F2CEDEBECC00CAD8BEC9D1
:102FD000B1E4D0C2D4CBD6C1B9A6B3C9CBECC6BD7F
:102FE000C9FAD6BEBEA1BDD4CAC7C3FC00C0A5C421
:102FF000F1BBAFC5F4CDF2C7DDB2BBC4DCB9F0CFD5
:10300000E3D2BBD5DBB8A3C2BBD7D4D4F600CBAEDA
:10301000BDE1B3C9B1F9B1F9CFFBB3C9CBAEC8F4C7
:10302000CAC7D3AAC4B1B5BDB5D7C8E7CAC700D708
:10303000D4D4DAD0DDD3C6B2BBD0EBD7C5C1A6B2EB
:10304000C6C2BBD6D8D6D8CEDEB2BBD0C0C3C000B5
:10305000BDF8CDCBC4AAD2C9D7D4D3D0BCD1C6DA9F
:10306000D3AAC4B1D3C3B6C8B2BBD0EBCDFDCEAAF0
:1030700000D1D4D3EFC4D1CBBCB7D1C1A6C0CDD081
:10308000C4D5ACD6D0D3C7C4D5B4FDD3F6B9F3C834
:10309000CB00BDCCC8A5BCB4C8A5BDCCD7A1BCB421
:1030A000D7A1D7D4D3D0BAE0CDA8B5BDCDB7B1D8CC
:1030B000C0FB00CEEFD4DACBAED6D0D0CED3B0B3F7
:1030C000A4B6CCBDD4D3D0B7D6B6A8B2BBD3C3C9EF
:1030D000CCC1BF00BDD3D6F1D2FDC8AAC1F7B4ABF5
:1030E000B2BBBEF8BEFDD7D3C4B1CDFBCEDEB2BB02
:1030F000D0C0D4C300D3AAC4B1D3C3CAC2C0CDD038
:10310000C4B7D1C1A6CAD8BEC9B4FDCAB1B7B2CA84
:10311000C2B4F3BCAA00CBF9D3C3C4B1CDFBBDD4B8
:10312000B4F3BBB6CFB2B4D3B9ABD3C3C1A6C8E76F
:10313000D7D3B7EAC4EF00B5C3D7A1C7D2D7A1BFD1
:10314000C9C8A1C7D2BEE1C4AAD2CBB1F0CAC2D607
:10315000BBD2CBCAD8BEC900C8E7D7EDD2FBBEC62A
:10316000D6BBD2CBCAD8BEC9D6B1B4FDCAB1C0B4E1
:10317000CEDED4D6CEDEBECC00D3D0C7A7B0E3BC63
:10318000C6B2BBC8E7C4AAB6AFD2BBB5A9CFE0C828
:10319000C7BFD6BBF6B9E9C9ED00BCD1C8CBD4DAFC
:1031A000CEDDD2F7B3AACAABC7FAD2BBC6ACBBB6A8
:1031B000D0C4C3FCD6D0BBF6B8A300C6BDC6BDCE36
:1031C000C8CEC8CBC4B7BDC3FBCFD4B8C4BEC9B486
:1031D000D3D0C2D2E0CEDED0D7CFD500B8A3CAC7F5
:1031E000C2BBBBF9C2BBCAC7B8A3D6D6CBB5B5C3A1
:1031F000B7D6C3F7C7D0D2CBCAD8BDF700CEDDCF84
:10320000C2B0B2C9EDBBF6B4D3CCECBDB5D4E7BE09
:10321000F5CFC8B7C0C3E2D4E2D4D6D1EA00D6AA6B
:10322000D6B9D4F2D6B9D6AABFEDD7D4BFEDB8EE91
:10323000D7D4C9EDC8E2BCB2CDB4D2BBB0E300CAAA
:10324000D8BEC9B4FDCAB1B0B2BEB2CEDEBECCB239
:10325000BBD3C3C7F3C4B1D7D4D4DAD3C6D3CE005B
:10326000D0C4C6BDD5FDD6B1B5BDB5D7C7E5C6BDC1
:10327000D6BBD2C0B1BEB7DDCCECCFC2CCABC6BDE5
:1032800000BBFDC9C6D6AEBCD2B1D8D3D0D3E0C73F
:10329000ECD6D2D2E5D6AEC3C5B9B0D5D5B8A3D099
:1032A000C700D2BBBCFDC9E4BFD5B5B1BFD5B2BB69
:1032B000BFD5B4FDB5C8B4BAC0B4B2CAD4DAC6E496
:1032C000D6D000CEDEC3D9B4BAC9ABBEC3D3EAB23E
:1032D000BBC7E7C7F3C4B1D3C3CAC2B2BBC8E7B068
:1032E000B2BEB200B2BBB3F6D6D8D6D8CAC2D3C922
:1032F000CCECC3FCD5F1B7C5D6D0BFAAC7D0D2CBD2
:10330000BDF7CAD800CAC2D0EBD7D0CFB8B2BBD3B2
:10331000C3C7BFC7F3BDE1B7E4B2C9C3DBD3D0C9EC
:10332000F5C0B4D3C900C0D7B7A2CAB1D7AAB3F603
:10333000C8EBC1BDB4E6D2BBB3AFB1E4BBAFD6B14D
:10334000B5BDCCECC3C500BDF8C9EDB2BBB5C3CDAE
:10335000CBB2BDCEAAC4D1B5CDCDB7D6B1C8A5CF5D
:10336000A4D4DAC6E4D6D000CEA3CEA3CFD5CFD591
:10337000C7B0B3CCD3D0D7E8C8F4CECAC7F3C4B172
:10338000B5BDB5D7D0C1BFE000CBE4CAC7D7CCBB71
:10339000F9D2B2D2AAB4FDCAB1D3AAC4B1D7D4B1BA
:1033A000BEC7D0C4AACDFDCEAA00C8E7C3CECBB558
:1033B000C3CEC9F9C3FBC4AACDFBD6BBB4FDBAC307
:1033C000CAB1B9F3C8CBD6B8CABE00C7F4C8CBB728
:1033D000EAC9E2B2A1D3F6C1BCD2BDC7F3B2C6C43A
:1033E000B1CDFBB9F3C8CBD6B8CABE00C8CBD3D0D9
:1033F000CED2BCFBD0C4B2BBD3C3C3A6B9DBD2F41C
:10340000D6B8CABEC7D0C4AAC7E1C2FD00D3D0CACD
:10341000BCD3D0D6D5C4AACFF2CEF7B6ABD0C4D6E3
:10342000D0D3C3CAC2B9F3C8CBD6D8D6D800D0C47B
:10343000D6D0C8A1CAC2CCECB1D8B4D3D6AED3AA28
:10344000C4B1D3C3CAC2BEA1BFC9CAA9CEAA00CB48
:10345000E4C8BBB7EACFD5B2BBCBF0C6E4C9EDD365
:10346000AAC4B1D3C3CAC2BDD4D3F6B9F3C8CB0082
:10347000CAD8BEC9B4FDCAB1C8E7D4C2B3F5B3F661
:10348000B4FDB5C8D4B2CAB1CEDED3D0B2BBBCAAEB
:1034900000BAAED3E3C0EBCBAEC3C0D6D0B2BBD77D
:1034A000E3C8F4CECAD3AAC4B1B2BBC8E7C4AAC6A3
:1034B000F000C0CFD5DFD3C3C7F3B4BAB2D0D4D9EC
:1034C000BFAAD3FBC7F3C3FBC0FBCDEDD3F6BAE174
:1034D000B2C600B3AFB5DBCADCD6B0C8E7C6B6B576
:1034E000C3B1A6C4B1CDFBB4D3D0C4D8D4D6D0B563
:1034F000DAD2BB00D4E4CAAFBCFBD3F1CCD4C9B39D
:10350000BCFBBDF0D0EBD2AAD7C5C1A6D6BBCAC7FB
:10351000C0CDD0C400C2AFCDB7B5E3D1A9CBC6B63C
:10352000FAB1DFB7E7BFC9D2CBD7F7B8A3BAF3BCBC
:10353000AAC7B0D0D700C8E7CAAFB2D8D3F1B9F3A1
:10354000C8CBD6B8CABEB5C3ECF3B3C6D0C4BBB6FD
:10355000BBB3B5C3D2E200C8F4CECAB9A6C3FBC799
:10356000B0D3D0B9F3C8CBB8FCCCEDCFB2C6F8B26B
:10357000C6C2BBB7E1D3AF00D2BBCCF5B4F3C2B780
:10358000BFC9CFF2C7B0D0D0D0C4D6D0D3C3CAC27F
:10359000D6BBBFC9CFF2C7B000D7D4D0A1D6C1B473
:1035A000F3CEDED7E8CEDEB0ADD7F7D2E2D3AAC4F1
:1035B000B1B9A6C3FBCBB3CBEC00D0A1C8CBC8D567
:1035C000CAA2BEFDD7D3C4AACEAAD6BBD2CBCAD874
:1035D000BCBAB4FDCAB1CAA9CEAA00D6AAD2F4B761
:1035E000BDD0EDCFD0CAC2C4AAC0EDB4FDB5C3B939
:1035F000F3C8CBCEDEB2BBBBB6CFB200D6BEC6F8E8
:10360000D0C4B6AFCAD8BCBACEB4B3D9BDF0BCA68C
:10361000B1A8C5B5CEDEB2BBBBB6CFB200D5E2D045
:10362000A9B8A3B7DDD6DAC8CBBDD4BCFBB2BBD337
:10363000C3D0C4C3A6B8A3B5C2C7B0B6A800B8BBB0
:10364000B9F3D4DACCECC6B6C7EECAC7C3FCB2BB7A
:10365000D3C3C7F3C4B1BDD4CAC7C7B0B6A800CAE4
:10366000D8BEC9CBE6CAB1B4FDB9F3C8CBD6C1C880
:10367000F4CECAD6EEB0E3D6F7CAC2B6A8B3D90024
:10368000D6D5C9EDC0CDC1A6C4AAB9DCCAC7B7C7D3
:10369000BCCFCBF8C1D9CAB1D4B9D3C8D7D4D6C15D
:1036A00000CDEAC2FAC1E9C7A9BEA1B1A8BEFDD644
:1036B000AAD2C0BEC9CEF0B6AFB4FDB5C8CAB1D6A5
:1036C000C100B4CBC7A9B3F5BFAACCECB5D8D6AE70
:1036D000CFF300D6EECAC2BDD4BCAAD2B20000005D
:1036E00000000000B4CBC7A9BEA8D3E3CEB4B1E4B8
:1036F000D6AECFF300B7B2CAC2C8CCC4CDB4FDCAEF
:10370000B1D2B2000000B4CBC7A9D1E0D7D3CFCE9D
:10371000DBE8D6AECFF300B7B2CAC2C0CDD0C4B7D3
:10372000D1C1A6D2B2000000B4CBC7A9B9C5BEB5FD
:10373000D6D8D4B2D6AECFF300B7B2CAC2C0CDD0BD
:10374000C4D3D0B9F3D2B2000000B4CBC7A9D7B666
:10375000B5D8C7F3C8AAD6AECFF300B7B2CAC2CFA6
:10376000C8C4D1BAF3D2D7D2B2000000B4CBC7A933
:10377000CDB6D1D2CDADC4F1D6AECFF300B7B2CA7B
:10378000C2D2CBCBB3BCAAD6AED5D7000000B4CB47
:10379000C7A9CDCFDBE8B4F8CBAED6AECFF300B738
:1037A000B2CAC2CAD8BEC9D4F2BCAAD2B200000002
:1037B000B4CBC7A9CBC9B0D8C3AFC1D6D6AECFF3AF
:1037C00000B7B2CAC2D3D0B9F3C6F8D2B200000073
:1037D0000000B4CBC7A9F0A8D4C2B5B1BFD5D6AE4E
:1037E000CFF300B7B2CAC2B9E2C3F7CDA8B4EFD2E3
:1037F000B2000000B4CBC7A9B3D6B5C6C3D9BBF0DD
:10380000D6AECFF300B7B2CAC2B4FDCAB1B3C9BE17
:10381000CDD2B2000000B4CBC7A9D2F2BBF6B5C37B
:10382000B8A3D6AECFF300B7B2CAC2D3AAC4B1BC54
:10383000AAC0FBD2B2000000B4CBC7A9BBF6D6D059
:10384000D3D0B8A3D6AECFF300B7B2CAC2CFC8D0D8
:10385000D7BAF3BCAAD2B2000000B4CBC7A9C1FA50
:10386000C3C5B5C3D3F6D6AECFF300B7B2CAC2D381
:10387000D0B1E4B4F3BCAAD2B2000000B4CBC7A963
:10388000CFC9BAD7C0EBC1FDD6AECFF300B7B2CA2D
:10389000C2CFC8D0D7BAF3BCAAD2B2000000B4CB12
:1038A000C7A9C4F1C8B5C0EBC1D6D6AECFF300B737
:1038B000B2CAC2B5BDB5D7D3A6D0C4D2B20000003B
:1038C000B4CBC7A9D2F5D1F4BACDBACFD6AECFF327
:1038D00000B7B2CBF9C4B1BDD4BCAAD2B2000000CB
:1038E0000000B4CBC7A9BBADB1FDB3E4BCA2D6AE5A
:1038F000CFF300D6EECAC2B6E0D0E9C9D9CAB5D274
:10390000B2000000B4CBC7A9D2F5D1F4CFFBB3A469
:10391000D6AECFF300B7B2CAC2CBECD2E2D6AED5A8
:10392000D7D2B2000000B4CBC7A9B4ACD0D0BCB1E0
:10393000CCB2D6AECFF300B7B2CAC2CAD8BEC9B4F1
:10394000FDCAB1D2B2000000B4CBC7A9BEC3D3EA4E
:10395000B3F5C3F7D6AECFF300B7B2CAC2CBECD241
:10396000E2D2B200000000000000B4CBC7A9D2F53B
:10397000D1F4B5C0BACFD6AECFF300B7B2CAC2BA8F
:10398000CDBACFB4F3BCAAD2B2000000B4CBC7A961
:10399000BAB5B7EAB8CAD3EAD6AECFF300B7B2CA5F
:1039A000C2C4D1D6D0D3D0BEC8D2B2000000B4CBEE
:1039B000C7A9CAD6B0E2CFC9B9F0D6AECFF300B727
:1039C000B2CAC2B1D8D3D0B9F3C8CBD2B2000000CA
:1039D000B4CBC7A9B3D5C8CBB5C0C8FBD6AECFF35F
:1039E00000B7B2CAC2CAD8BEC9B4FDCAB1D2B20009
:1039F0000000B4CBC7A9B9C5BEAEB7EAC8AAD6AE57
:103A0000CFF300B7B2CAC2B9F3C8CBB3C9BECDD2E7
:103A1000B2000000B4CBC7A9D0E9C3FBD6AECFF348
:103A20000000000000B7B2CAC2D2CBCAD8BEC9D209
:103A3000B20000000000B4CBC7A9CEDDBAC3C7BD39
:103A4000B1DAD6AECFF300B7B2CAC2CEC8B5B1CEE6
:103A5000DECFD5D2B2000000B4CBC7A9D4C2B1BB6F
:103A6000D4C6D5DAD6AECFF300B7B2CAC2BBE8C36C
:103A7000D4CEB4B6A8D2B2000000B4CBC7A9B1A6C8
:103A8000BDA3B3F6CFBBD6AECFF300B7B2CAC2D395
:103A9000D0CDFED3D0CAC6D2B2000000B4CBC7A9E5
:103AA000B0B2B7DDCAD8BCBAD6AECFF300B7B2CA8F
:103AB000C2D0A1D0C4BDF7B7C0D2B2000000B4CB11
:103AC000C7A9CAD8BEC9B0B2C8BBD6AECFF300B77B
:103AD000B2CAC2CAB1B4FDCAB1D4F2BCAAD2B20051
:103AE000B4CBC7A9C6CACAAFBCFBD3F1D6AECFF31D
:103AF00000B7B2CAC2D7C5C1A6B3C9B9A6D2B2006F
:103B00000000B4CBC7A9B2D8D3F1CDE2C3D9D6AEA9
:103B1000CFF300B7B2CAC2B4FDCAB1BFC9D2B200B6
:103B200000000000B4CBC7A9BAECC8D5B5B1BFD569
:103B3000D6AECFF300B7B2CAC2CBECD2E2D2B2005B
:103B4000000000000000B4CBC7A9D2C2B9DAD6D8B1
:103B5000D5FBD6AECFF300B7B2CAC2CFC8C4D1BA74
:103B6000F3D2D7D2B2000000B4CBC7A9D4B3BAEF16
:103B7000CDD1CBF8D6AECFF300B7B2CAC2CFC8C44E
:103B8000D1BAF3D2D7D2B2000000B4CBC7A9B7E7FD
:103B9000D2A1B5C6D6F2D6AECFF300B7B2CAC2CA6A
:103BA000D8B3A3D4F2BCAAD2B2000000B4CBC7A948
:103BB000D4C6CEEDD5DAD4C2D6AECFF300B7B2CAF2
:103BC000C2CEB4CBECCAD8BEC9D2B2000000B4CBCE
:103BD000C7A9CAD8B3A3B0B2BEB2D6AECFF300B7AE
:103BE000B2CAC2CAD8BCBAD4F2BCAAD2B2000000CF
:103BF000B4CBC7A9D2F5B3A4D1F4CFFBD6AECFF3E3
:103C000000B7B2CAC2CFC8C4D1BAF3D2D7D2B200B9
:103C10000000B4CBC7A9C8CFD4F4D7F7D7D3D6AE5A
:103C2000CFF300B7B2CAC2C8CFD5E6B7C0BCD9007F
:103C300000000000B4CBC7A9CCECB4B9B6F7D4F3FC
:103C4000D6AECFF300B7B2CAC2B3C9BECDB4F3BCCF
:103C5000AAD2B2000000B4CBC7A9B4F3B5D8BDBB9B
:103C6000CCA9D6AECFF300B7B2CAC2B4F3BCAACEC9
:103C7000DECEA3D2B2000000B4CBC7A9C6E5B7EA36
:103C8000B5D0CAD6D6AECFF300B7B2CAC2D3C3BB83
:103C9000FAB9D8D4F2BCAAD2B200B4CBC7A9BBFD42
:103CA000C9C6CEC2C8E1D6AECFF300B7B2CAC2B958
:103CB000F3C8CBBACDBACFD2B2000000B4CBC7A9FB
:103CC000BFDDC4BEC9FABBA8D6AECFF300B7B2CA37
:103CD000C2D7D4D3D0B3C9BECDD2B2000000B4CBCA
:103CE000C7A9BDF5C9CFCCEDBBA8D6AECFF300B701
:103CF000B2CAC2B4F3BCAAB4F3C0FBD2B200000093
:103D0000B4CBC7A9C0A5C5F4D0CBB1E4D6AECFF330
:103D100000B7B2CAC2D3D0B1E4B6AFB4F3BCAA0004
:103D20000000B4CBC7A9CBAEBDE1B3C9B1F9D6AEE3
:103D3000CFF300B7B2CAC2B2BBD3C3CDF7C7F3D279
:103D4000B2000000B4CBC7A9CBB3B7E7B3C5B4ACDE
:103D5000D6AECFF300B7B2CAC2BDD4CBB3B4F3BCB6
:103D6000AAD2B2000000B4CBC7A9C8CBC8CBB3EE6F
:103D7000C8C8D6AECFF300B7B2CAC2CBE6D0C4B47F
:103D8000D3D2E2D2B2000000B4CBC7A9CCB0C7F303
:103D9000B7D1C1A6D6AECFF300B7B2CAC2C0CDD09C
:103DA000C4B7D1C1A6D2B2000000B4CBC7A9C1FA32
:103DB000D2F7BBA2D0A5D6AECFF300B7B2CAC2CB62
:103DC000B3D2E2D3D0CDFBD2B2000000B4CBC7A9AE
:103DD000C3CED6D0B5C3B1A6D6AECFF300B7B2CA64
:103DE000C2CDF7B7D1D0C4C1A6D2B2000000B4CBC7
:103DF000C7A9BDD3D6F1D2FDC8AAD6AECFF300B7BE
:103E0000B2CAC2C4B1CDFBB4F3BCAAD2B2000000A6
:103E1000B4CBC7A9B4ACD0D0D0A1CCB2D6AECFF37E
:103E200000B7B2CAC2D3D0B9F3C8CBD6FAD2B20067
:103E30000000B4CBC7A9BAA2B6F9BCFBC4B8D6AED1
:103E4000CFF300D6EECAC2B9F3C8CBB4F3BCAAD242
:103E5000B2000000B4CBC7A9CAD8BEC9B4FDCAB16C
:103E6000D6AECFF300B7B2CAC2CAD8BEC9D4F2BC6C
:103E7000AAD2B2000000B4CBC7A9CAD8BEC9CBE64B
:103E8000CAB1D6AECFF300B7B2CAC2B4FDCAB1D47C
:103E9000F2BCAA0000000000B4CBC7A9B1A7D0BDF6
:103EA000BEC8BBF0D6AECFF300B7B2CAC2D2E0D71D
:103EB000D4BDF7B7C0D2B2000000B4CBC7A9CAD8EE
:103EC000BEC9CBE6CAB1D6AECFF300B7B2CAC2CA3A
:103ED000B1BCAAC0FBD2B20000000000B4CBC7A99D
:103EE000C9F1B7F0B0B5D3D3D6AECFF300B7B2CAED
:103EF000C2C8CCC4CDB4F3BCAAD2B2000000B4CBCB
:103F0000C7A9BAA3D6D0D1B0D5EBD6AECFF300B700
:103F1000B2CAC2B7D1D0C4C0CDC1A6D2B2000000CF
:103F2000B4CBC7A9D3E3D4E2C2DECDF8D6AECFF38B
:103F300000B7B2CAC2D2E0D2CBCCE1B7C0D2B20095
:103F40000000B4CBC7A9B8EEC8E2B3C9B4AFD6AECF
:103F5000CFF300B7B2CAC2D6BBD2CBCAD8BEC9B49F
:103F6000FDCAB100B4CBC7A9B4ACC6C6CFC2CCB2EF
:103F7000D6AECFF300B7B2CAC2CFD5D7E8CCE1B73F
:103F8000C0D2B2000000B4CBC7A9D0C4C6BDD5FD15
:103F9000D6B1D6AECFF300B7B2CAC2B0B2CEC8CE99
:103FA000DED0D7D2B2000000B4CBC7A9C3C5CDA222
:103FB000BCAAC7ECD6AECFF300B7B2CAC2CBB3CB64
:103FC000ECD2B200000000000000B4CBC7A9C3B718
:103FD000BBA8D5BCBFFDD6AECFF300B7B2CAC2D224
:103FE000CBB3D9D4F2BCAAD2B2000000B4CBC7A9DB
:103FF000C3DBB7E4B2C9BBA8D6AECFF300B7B2CA31
:10400000C2C0CDD0C4B7D1C1A6D2B2000000B4CBDB
:10401000C7A9D2BBB9ADC1BDBCFDD6AECFF300B709
:10402000B2CAC2D4D9BACFD4F2BCAAD2B20000006C
:10403000B4CBC7A9C7F3CCF0B5C3BFE0D6AECFF3BE
:1040400000B7B2CAC2B7C0B7B6D4D6D1EAD2B200AE
:104050000000B4CBC7A9C0D7B7A2B0D9B3E6D6AEDB
:10406000CFF300B7B2CAC2D3F6B9F3C8CBBCAAD556
:10407000D7D2B200B4CBC7A9CBC6F0C0CDB6C1FD74
:10408000D6AECFF300B7B2CAC2B6E0D0E9C9D9CA3A
:10409000B5D2B2000000B4CBC7A9B1A7BBA2B9FD8D
:1040A000C9BDD6AECFF300B7B2CAC2CFD5D0D7BE46
:1040B000AABFD6D2B2000000B4CBC7A9D3E3C1FADD
:1040C000CEB4B1E4D6AECFF300B7B2CAC2B4FDCA23
:1040D000B1D6C1BFC9D2B2000000B4CBC7A9C3CE0C
:1040E000D6D0B5C3B1A6D6AECFF300B7B2CAC2D050
:1040F000E9B6E0C9D9CAB5D2B2000000B4CBC7A9AD
:10410000C6BDC9C6D3C3CAC2D6AECFF300B7B2CA02
:10411000C2C6BDCEC8B4F3BCAAD2B2000000D0C59E
:10412000CAB5C4AAD0C5D0E9D6AECFF3000000B757
:10413000B2CAC2CAD8BEC9D6AED5D7D2B200000064
:10414000B4CBC7A9B9F3C8CBBDD3D2FDD6AECFF39C
:1041500000B7B2CAC2BACDBACFB4F3BCAAD2B200C9
:104160000000B4CBC7A9CEE0CDA9D2B6C2E4D6AE8A
:10417000CFF300B7B2CAC2CFC8D0D7BAF3BCAAD265
:10418000B2000000B4CBC7A9BBF0C0EFC9FAC1AB05
:10419000D6AECFF300B7B2CAC2CBC6CFD5B7C7CF62
:1041A000D5D2B2000000B4CBC7A9D4C2C8B1CEB436
:1041B000D4B2D6AECFF300B7B2CAC2BAF2CAB1D443
:1041C000F2BCAAD2B2000000BAAED3E3C0EBCBAED1
:1041D000D5D0D0D7D6AECFF300B7B2CAC2B2BBBF2C
:1041E000C9D2C6B6AFD2B2000000B4CBC7A9B4BA28
:1041F000BEA1BBA8BFAAD6AECFF300B7B2CAC2D683
:10420000F7BAF3B8C4B1E4D2B2000000B4CBC7A986
:10421000C9CFB3AFBCFBB5DBD6AECFF300B7B2CAE4
:10422000C2B4F3BCAAB4F3C0FBD2B2000000B4CB5A
:10423000C7A9CCD4C9B3BCFBBDF0D6AECFF300B791
:10424000B2CAC2D3D0B9F3C8CBD6AED5D7D2B2009A
:10425000B4CBC7A9C4BEBBA2D3D0CDFED6AECFF3DC
:1042600000B7B2CAC2D0E9BEAAC9D9CAB5D2B20093
:104270000000B4CBC7A9CAAFB2D8D5E4B1A6D6AEB8
:10428000CFF300B7B2CAC2B3C6D0C4B4F3BCAAD28B
:10429000B2000000B4CBC7A9B9A6C3FBB3C9BECD59
:1042A000D6AECFF300B7B2CAC2D2CBBDF8B4F3BC1E
:1042B000AAD2B2000000B4CBC7A9C7B0CDBECFD43C
:1042C000B4EFD6AECFF300B7B2CAC2CDA8CCA9B472
:1042D000F3BCAAD2B2000000B4CBC7A9D7D4D0A1F6
:1042E000CEAAC9CCD6AECFF300B7B2CAC2C7DABC29
:1042F000F3CEDED3C7D2B2000000B4CBC7A9F0BD65
:10430000B7EFB1BBD3EAD6AECFF300B7B2CAC2B4EF
:10431000FDCAB1B4F3C0FBD2B2000000B4CBC7A950
:10432000D2AAB7EAD6AABCBAD6AECFF300B7B2CA01
:10433000C2CAD8B3A3D4F2BCAAD2B2000000B4CB94
:10434000C7A9D6BEC6F8B9A6C3FBD6AECFF300B791
:10435000B2CAC2CAD8B3A3B4F3BCAAD2B200000096
:10436000B4CBC7A9B8A3B5C2CFD6C9EDD6AECFF3EB
:1043700000B7B2CAC2B4F3BCAAC0FBD2B2000000FC
:104380000000B4CBC7A9B5B1B7E7B5E3D6F2D6AE56
:10439000CFF300B7B2CAC2D0E9C3FBB2BBC0FBD2F5
:1043A000B2000000B4CBC7A9CAD8BEC9CBE6D4B509
:1043B000D6AECFF300B7B2CAC2B2BBC8E7D2E2D61C
:1043C000F7D0D7D2B200B4CBC7A9B0EBD3C7B0EB0C
:1043D000CFB2D6AECFF300B7B2CAC2D6BBD2CBD023
:1043E000D0C9C6D2B2000000B4CBC7A9CAD8B3A303
:1043F000CEF0B6AFD6AECFF300B7B2CAC2D2CBB40E
:10440000FDCAB1BCAAD2B2000000080F10205F00A4
:10441000001F00003F025151900F00E02040F808BB
:1044200008F80808F800041212F0BCB100201710B8
:104430000302F21310111214102847004040FC40F0
:10444000F84848F8E05048444000FE00CBD9040446
:1044500044241414040C1424440808102040404040
:104460004448504060504844404242423E00D5D704
:1044700010101F2020401F101010FF00000000002F
:104480000000FC808080F8808080FE8080808080BA
:10449000C4EA0101013F010101FF0305091121C126
:1044A0000101000000F8000000FE80402010080616
:1044B0000000CEB408080F101033325392131213B9
:1044C00012121F104040FC4040F808F808F808F8A5
:1044D0000808FE00D6B500007C444544447C4444B2
:1044E00044447C44000008080808FE08080888487E
:1044F000480808082810CAB1000101FD050549292E
:10450000111128244481020400FC040424242424DE
:10451000245450909012120EB9DB02013F0008049F
:10452000FF001F10101F10101F100000F800204087
:10453000FE00F01010F01010F010D2F4007C44498E
:104540004A50494E4445446A534040408080FC08EC
:104550009060982620FC2020FE202020BDB5101061
:104560003F4885003F01013F01017F0101004040BC
:104570007E9008F80000F80000FC020202FEB1CABA
:104580000111111F214101FF04040408081020C07B
:10459000000000F8000000FE4040404042423E0063
:1045A000CFC810111111FD1111151931D1111111AF
:1045B000512100FC0404140800FC4444282810285D
:1045C0004482B1A8003F0404FF04043F08081F18F8
:1045D00028488F0800F80808FE0808F80000F808C6
:1045E0000808F808BEFD2020207E48880808FF083B
:1045F00014142222428000007C4444444444444435
:1046000044447C440000D6AA080B12234A0B103302
:10461000509710121110101000F808F808F800FC5C
:1046200010FE101010105020B5C3003F02121224CB
:104630000810600108484848870000F80808080882
:104640000850200088841212F000C8CC001F1010FF
:10465000101F1010101F10101010FF0000F010108D
:1046600010F0101010F010101010FE00C7D200FF54
:104670000808107F555555555555555541430888DF
:104680000808FE0808084828280808082810C4CD8B
:10469000080910204189091121458509102041820E
:1046A00000FE2040FC0424242424244450880402D6
:1046B000D0EB08081023480817305097101211113A
:1046C0001010404040FC4040FE1010FE1010101032
:1046D0005020B4FD007F020408103F0001013F019B
:1046E0000101FF0000FC00002010F8080000F800A5
:1046F0000000FE00D6C1000000FE111010101010C6
:10470000101EF141020440404040FC4444444484B3
:10471000848404042810B9A6020207081462020166
:10472000061FE80808080F080000F010204080006D
:1047300000F808080808F808C3FB00231010000060
:10474000F011121410101028470000FC20204040E7
:10475000D048444440404000FE00BBB9020204FF80
:10476000080810305790101010101F10000000FEA5
:1047700000404040FC4040404040FE00D4DA000091
:104780003F01010101FF010101010101010110F8D7
:104790000000000000FE0000000000000000C7A7AD
:1047A00008103E22322A2AFE22322A2A22424A8532
:1047B00000784848488600FC444428281028448251
:1047C000B0E3003F2121213F2121213F212121412F
:1047D000418000F8080808F8080808F808080808E0
:1047E0002810D3C3002010100000F7101010101074
:1047F00014181000404040404040FE4040404040BF
:1048000040404040BCC61F101F101F003F202F20FB
:104810003F2928484A8CF010F010F000FC00F80006
:10482000FE0890601806B3BF003F20203F202830CC
:10483000201F10101F10101F78808080FC40221A4B
:1048400006F01010F01010F0BBE8007F000001012E
:104850000305091121418101010100FC8080000054
:1048600040201008040400000000B2BB1010172004
:10487000236263A02F282320202021208040FC00D9
:10488000F808F800FE02F84040404080CDA3014106
:1048900021230206EB22222322222A332202402055
:1048A00020FE2020FC2020FC202020FE0000CBAD9C
:1048B0000404042424272424242424242FF0400046
:1048C00040404044485060404040404242423E00E8
:1048D000B4CB0101FF013F213F013F01FF013F0137
:1048E00005020000FE00F808F800F808FE08F800CD
:1048F0000000CAC200FF08102241FF0808087F0814
:10490000080FF840048404242424A4A42424242488
:1049100004841408B5BD01003F2020272424242747
:104920002424244546840080FE003CC0404040FED4
:104930002020120A4622B5D70808FF08007F4282CD
:104940003F020204040810202020FE2000FE020482
:10495000F01010101010A040C0CD000201000004A3
:1049600004242424444484040300000000808000C4
:104970000804040202121010F000D0C40121111228
:10498000854142101720E222232020000000FC0471
:1049900004E48484F484A4A4E4042810CCD4002087
:1049A0001011814242141020E020202021064040B6
:1049B0004048444242484848101020408000C9B353
:1049C000001F10101111111111121204040830C02F
:1049D00000F0101010101010109090808082827ED5
:1049E000BCFB0101020408102FC1013F011109099C
:1049F000FF00000080402010E80600F800101020A2
:104A0000FE00BDF000F8094848494B7C05051DE54E
:104A1000450428102020FC508804FE08E82828E8D7
:104A200028082810C6EF04040404FF040404040842
:104A300008101122448020101000FE80888890A069
:104A4000C08282827E00C1FA00784B4848791210F9
:104A5000515D515159E101012022B4A8A824A2407E
:104A6000FC0404FC0404FC04CCA40101013F21214A
:104A70002F21202023222244489000F800FC0460CB
:104A80008808F800E0202024241CBBA2001F10107E
:104A90001F01013F21213F0101017F2000F0101083
:104AA000F00000F80808F82010F80404CBE41F1008
:104AB000101F10101F00FF01111111294583F01064
:104AC00010F01010F000FE0000F8000000FECAC751
:104AD000003F01010101FF01010101010101050286
:104AE00000F800000000FE000000000000000000D0
:104AF000D3DA010101013F21212121213F210101BF
:104B0000010100000000F80808080808F808000083
:104B10000000D6D00202FF04040F08182F48880FA7
:104B2000080808080000FE0000F01010F01010F057
:104B300010105020D3D01008007E0204081A2C4A0E
:104B40000A08080808084040404040605048444473
:104B5000404040404040B2B914122149081422415B
:104B6000BE222222223E22012020207E42841010DA
:104B70001010282848448402D3FB1008FF20202668
:104B80003820017F01013F0101FF007C447C447C0F
:104B9000449408FC0000F80000FECDFB00FF040474
:104BA000043F24242424283020203F2000FE4040BD
:104BB00040F84848484838080808F808CEF7020185
:104BC00001FF040404070404040808102040000046
:104BD00000FE000000F0101010101010A040B7BD33
:104BE000007F00001F11111111111F1100000000A2
:104BF00000FE101010101010101010101010502087
:104C0000BFC90101017F01211109030509116101DA
:104C10000502201000FC000810A04020100806002B
:104C20000000C7F310101010FE22222242241408A4
:104C3000142242800000007C4444444444444444E0
:104C4000447C4400C8E70808FF08001F101F101F1D
:104C5000017F020418E02020FE2000F010F010F088
:104C600000FC8040300EC4AA00007C000100FE2041
:104C700020204844FD45020440404040FC44444458
:104C80004484848404042810B6AF020101007F002C
:104C90000010080804040400FF0000000000FC00ED
:104CA0001010202040408000FE00C1A21010101102
:104CB00011FD11131111111DE141000020202020D0
:104CC0002C3464A4243428222202FE00B5D80242E7
:104CD0002F220203E22223202F2029322C00080851
:104CE000FE0808F80808F840FEE050484640C4B105
:104CF0000102040A31DF101F101F101110121418C6
:104D00000080402018F610F010F0089060100804A1
:104D1000CAB3003F020202027F0404040808102004
:104D2000408000F000000000FC808080808084844F
:104D30007C00CEDE0101020408102FC1013F0111E9
:104D400011214502000080402010E80600F8001004
:104D500008040400D3E002041F101F101F10107F6E
:104D60000000031CE0000000F010F010F21418F036
:104D7000509010105020C9ED0020171083404710AC
:104D80001322E322232222024040FC40F840FE008E
:104D9000F808F808F8082810C7E5017F013F003F30
:104DA000203F08FF003F20203F2000FC00F800F8D3
:104DB00008F820FE00F80808F808CFB2040830DF31
:104DC000040408103F10111111020C70402018E665
:104DD0002020A040F010101010601804C6B6010783
:104DE0007C040404FF0C1615242444840404048465
:104DF00004242424A4242424A42404041408C0FB8C
:104E000000001F101121213F010909112141050254
:104E100020F00000000000FC002010080404000046
:104E2000C0D610131111FD103038545490101010CA
:104E3000111600FC040404888888505020205088F3
:104E40000402C8A81010101F1020203F000000FF0F
:104E500000000000000000FC000000F8080808C87E
:104E600008085020D3EB20272424FF2424776CA5A6
:104E7000A4252624202000BE8888A8A8A8BE101833
:104E800098A8AA4A4680B8C50101010101010202A1
:104E9000040408081020408000000000000080800A
:104EA0004040202010080402C8CB03221213020243
:104EB000F3121212121312284700F80808F8080813
:104EC000F844281088040400FE00CDCB0020101305
:104ED0000000F0171010111112284700909090FC5C
:104EE000909090FE909010101000FE00BDF801010F
:104EF00011111111FF010111112140031CE00000EB
:104F0000F8000000FE0000081020C0000000B2BD44
:104F100001211111017F02020204040810204080C7
:104F20000000000000F808088848480808085020D9
:104F3000CEAA0000FC05054B2D291111292545811C
:104F40000101A09080FE1010FC1010FC101010FE4B
:104F50000000C4D1001F1010101010101F10000806
:104F60000810204000F0101010101010F010002059
:104F700010080404D6BB02017F40801F10101F10D0
:104F8000101F1010FF000000FE0204F01010F010BF
:104F900010F01010FE00D2CB02017F40800000FF15
:104FA00000001008080001000000FE02444040FE1E
:104FB0004040404040404080CAD820232222222244
:104FC0002223222222222223222000FC0404040481
:104FD00004FC0404040404FC0400BEC90201FF0034
:104FE0000F08080F007F404F48484F400000FE0068
:104FF000E02020E000FC04E42424E40CB8DF1010DE
:105000001111FD1111151931D11111125224081C61
:10501000E00000FC44444428281010284482B0E2F8
:10502000007C4444457C1010115C5050505CE00002
:10503000404078885020508806F888888888F8880A
:10504000C2B70202020202020302020202020202CA
:10505000FF00000000000000F80000000000000059
:10506000FE00C9CF0201FF001F10101F003F00010A
:10507000010105020000FE00F01010F000F0608059
:1050800000000000BAE0004720210007E4242724A4
:1050900024272424548F00F810A040FC4444FC44EE
:1050A00044FC445408FECDA8101020214BFC1020D5
:1050B00043FC400018E140008080F80810A040A0A8
:1050C0001806C02010806010D6D5003F2121212174
:1050D000213F21212121213F200000F80808080854
:1050E00008F80808080808F80800CCEF003F01029B
:1050F000FF040831DF11111F11017F2000F80000AB
:10510000FE402018F61010F00008FC04B2CF010198
:10511000017F0101013F010101FF010101010000C7
:1051200000FC000000F8000000FE00000000B7E1F5
:1051300010FE007D447C007C08FE1152204844840F
:10514000404040F84848C848AAAA0602008844449B
:10515000CAEC02017F40807F020D71020C710618BB
:10516000E2010000FE0204FC000890A0C0A09886A6
:105170008000BCD2022110170003F2131213121385
:1051800012284700081000FC80F808F808F808F812
:105190000800FE00B5C004022111080800FF000449
:1051A00004080810204008080810102040FE0040A5
:1051B000201008080404D0CB00794A5550635C4B9A
:1051C000484A6B5443404F4080F80810E01806F8F6
:1051D0004040FC40F840FE00C2A1007F01010101F7
:1051E0001111111111111111FF0000FC000000003C
:1051F00000F8000000000000FE00D5FD01017F0165
:105200001F10101F101F101F1010FF000000FC00C7
:10521000F01010F010F010F01010FE00D6B10001E8
:10522000FD111111117D101011101CE0430000FC44
:105230002424FC2424FC2020FC202020FE00C0ED9F
:105240000445545455555555555555555454850692
:1052500000FE2040FC04242424242444508804021A
:10526000CBB300201010874040101F20E0212224E3
:105270002F0440404040FC404040FE408000100869
:10528000FC04B7A802017F40843F04001F101111E5
:10529000120418E00000FE0244F84000F010101064
:1052A0009082827EBFED003F080402010618E101F2
:1052B0001F0101017F0000F020408000C0300E007F
:1052C000F0000000FC00CAA5040E780808FF0818CA
:1052D0001C2A2A4889080808202020202040404015
:1052E00040488484FE820200CBBD0047202003009A
:1052F000E027202023222A32230200FC4040F888A5
:1053000088FE0000F8080808F808D3EF0004040835
:105310001020409F04040408081021404040202031
:10532000100804E22020202020204080B7D6000072
:105330007C4444447C4444447C440101020400FC19
:10534000848484FC848484FC848404041408C3F767
:1053500010111111FD252525254929112945810106
:1053600000FC04242424FC2424544C8C0404FC0459
:10537000D2F61010212148FB102043F8400318E01A
:10538000430080FC04F808FE40A234589434529044
:105390005020D4B5010102040830CF00007F020480
:1053A00008103F10000080402018E60000FC0000BC
:1053B0002010F808BBE1002312130203F0171414A5
:1053C00014151414284700F848F848F840FC4454D1
:1053D0007494040C00FED3F608080F1010333252F8
:1053E00092121312101010100000FE0808C848484E
:1053F0004848C84808082810BACE0000003F2020BE
:10540000203E222222222A444081504840FE404031
:10541000444444282812324A8602B3C9007B4A52C7
:105420005362524B4A4A6A524242434200F80808C9
:10543000F80808F84448302010880600CFDE013F05
:105440000804FF001F101F101F025151900F00F899
:105450002040FE00F010F010F000041212F0D2E232
:1054600000037A4A4B7A4A4B7A4A4A4A7A4A0302FA
:1054700000F80808F80808F84448302010880600AA
:10548000D1DB100808FF003E22223E22223E2222CB
:105490002A24101020FE00084848484848480808B8
:1054A0002810C7B001017F011F101F101F101F100F
:1054B000FF0810200000FC00F010F010F010F010B9
:1054C000FE201008D5E60201FF04142444003F0822
:1054D0000402010618E00000FE4050484400F0209D
:1054E000408000C0300EB1E402013F20420202FFC2
:1054F0000408180601020C700000FC04080000FEFD
:105500002020404080601008B0B210101E22334AA4
:10551000A414081021420048448420282420FE209E
:1055200050508888040200884444C8BB0808FF081B
:105530000A02FF04081F284888080F082020FE20C0
:105540002000FE0000F010101010F010C8F420171A
:10555000004040474444444444474440404000FCE9
:10556000040404C44444444444C444041408CECA57
:10557000002011110101F11111111212142847001C
:10558000081CE00000FE1010101010101000FE00AB
:10559000BDFC011F11111F01FF001F10111111028D
:1055A0000C7000F01010F000FE00F01010101060F1
:1055B0001804B9F310101011FA15111931D1171080
:1055C000101051268080F80810FC24242424FE505A
:1055D00050880402BBBB01003F2222223F22262723
:1055E0002A2A524282020080FE101010BE1010388B
:1055F000B45492101010C2E90808101022427C0422
:105600000810207E0000FF00101020204484F808BD
:10561000102040FC0000FE00CBBF0101013F010152
:1056200001FF0101212121213F00000000F80000BD
:1056300000FE000008080808F808BBF70000FD0499
:105640004444282810102828444481020000FC8487
:10565000848488885050202050880402CBAB001FDF
:10566000101010101F01011111112925438000F0A5
:1056700010101010F0000000F8000000FE00D7E34A
:10568000007F04043F24243F027F04081C030638E3
:1056900000FC4040F84848F800FC2040808070083A
:1056A000D2AA007F404141415F41424244485040BC
:1056B0007F4000FC04040404F4048444241414040F
:1056C000FC04D2F202017F4081011111112102027A
:1056D000040830C00000FE0204000808102080808A
:1056E00040201806D4D6402320F9111121306BAA8E
:1056F00022232222232200FE00FC0404FC00FE22BE
:1057000022FE2222FE02B8A3007F404141414142D5
:105710004244444850407F4000FC04040404048494
:10572000444424242404FC04C7F40121131400017C
:10573000F610131013101710284700F808906098FF
:105740000640F840F840FC4040FEB7EA0808087EF2
:105750000808FF141456559524245488202020400E
:105760007E8444444428281010284482C9E2000062
:105770001F109057501037549415262444848040AD
:10578000FE0000FC4040FC44A41414041408B2A120
:10579000007E42427E42427E4048444A52600000BF
:1057A000007C4444444444444444544840404040C1
:1057B000BCB4201310404040404040404040404076
:1057C000404000FC0404040404040404040404042D
:1057D0001408C3C5002013120203F2131315151980
:1057E000111128478040FC0404FC00FC5454FC5474
:1057F000440C00FEB1E902041F101F101F007F01BE
:10580000013F0101FF000000F010F010F000FC006B
:1058100000F80000FE00BBCA08087E090AFF081055
:105820003F61A13F21213F2100BEA22424E824247E
:105830002222223428202020B6BC08080B10103069
:10584000305F90101010101017101078C0404040BA
:1058500040FE404040404040FC00C8CE0101013FB6
:1058600021212F21202020202A4A528100F800FCEB
:1058700004608808F8008044421210F0C2C7007823
:105880004954526051484E4A6A52424245481010AB
:10589000FE2040FC44447C447C44544800FECBE65B
:1058A00002073820203E2222223E2020414182044D
:1058B000081CE0808080FE8888888888080808089E
:1058C000CBF9002211110003F2121312121312125B
:1058D0002A474048485040F80808F80808F80828BF
:1058E00010FEE5D0002310120101F2101310111167
:1058F000111128473CC0044428FC2020FE20242409
:1059000024FC00FED2A3040E780808FF08181C2A05
:105910002A48880808080000007C44444444444461
:1059200044447C440000BACD10103E42A21408103A
:1059300020C001084848870000F88888A89084841F
:105940007C0000849212F000D4B9080808171434BF
:1059500034579414141714101010404040FC444461
:1059600044FC444444FC44404040C9EC1010101036
:10597000FC242425244828102844840000FC040822
:10598000102020FE202020202020A040BAC30201A9
:10599000FF00003F00003F00003F20203F200000AC
:1059A000FE0000F80000F80000F80808F808D1D45C
:1059B00008080B10103130509110101111111111F5
:1059C0004020FE0000FC0000FC0000FC0404FC047D
:1059D000D0C51010101E122222529414080814234D
:1059E0004080404040406050484444404040400077
:1059F000FE00B4A6011111113F214101FF02040470
:105A0000081020C000000000F8000000FE804040A8
:105A100020100806CAA710101010FC10111519311B
:105A2000D1111010502300F88888F800FC042424B9
:105A3000242450488404CBF0100800FF00081020F4
:105A4000403F24242424FF00102000FE00201008E2
:105A500004F848484848FE00D2E60101010101115E
:105A600011112121418101010502000000000010F7
:105A700008040402020200000000D0A10000100887
:105A8000444241424448506040407F000010102092
:105A900044840484442414140404FC04D0D7007FF8
:105AA0000000000101FF010101010101050200F8F0
:105AB0001020408000FE0000000000000000D7D34E
:105AC000010101FF0101013F00001F1010101F1014
:105AD000000000FE000000F80000F0101010F010B0
